:020000040000FA
:100000000C9462000C948A000C948A000C948A0070
:100010000C948A000C948A000C948A000C948A0038
:100020000C948A000C948A000C948A000C948A0028
:100030000C948A000C948A000C948A000C948A0018
:100040000C940F030C948A000C94DD020C94B702FC
:100050000C948A000C948A000C948A000C948A00F8
:100060000C948A000C948A000000000024002700F1
:100070002A0000000000250028002B0000000000DE
:1000800023002600290004040404040404040202DA
:100090000202020203030303030301020408102007
:1000A0004080010204081020010204081020000012
:1000B0000008000201000003040700000000000027
:1000C00000007D0511241FBECFEFD8E0DEBFCDBFFD
:1000D00021E0A4E3B1E001C01D92AD3EB207E1F71B
:1000E00011E0A0E0B1E0E8E9FBE002C005900D926C
:1000F000A433B107D9F710E0C2E6D0E004C02197DD
:10010000FE010E94C405C136D107C9F70E945903F8
:100110000C94CA050C940000AF92BF92CF92DF926C
:10012000EF92FF920F931F93CF93DF936C017B01AC
:100130008B01040F151FEB015E01AE18BF08C0173D
:10014000D10759F06991D601ED91FC910190F081B0
:10015000E02DC6010995892B79F7C501DF91CF9173
:100160001F910F91FF90EF90DF90CF90BF90AF90D5
:100170000895FC01538D448D252F30E0842F90E0AD
:10018000821B930B541710F0CF9608950197089592
:10019000FC01918D828D981761F0A28DAE0FBF2F5B
:1001A000B11D5D968C91928D9F5F9F73928F90E0B1
:1001B00008958FEF9FEF0895FC01918D828D981720
:1001C00031F0828DE80FF11D858D90E008958FEF5D
:1001D0009FEF0895FC01918D228D892F90E0805C26
:1001E0009F4F821B91098F739927089580E591E0B5
:1001F0000E94EA0021E0892B09F420E0822F089573
:1002000080E090E0892B29F00E94F60081110C9487
:1002100000000895FC01A48DA80FB92FB11DA35AA9
:10022000BF4F2C91848D90E001968F739927848F16
:10023000A689B7892C93A089B1898C918370806439
:100240008C93938D848D981306C00288F389E02DDA
:1002500080818F7D80830895EF92FF920F931F938B
:10026000CF93DF93EC0181E0888F9B8D8C8D981369
:100270001AC0E889F989808185FF15C09FB7F89475
:10028000EE89FF896083E889F989808183708064C1
:1002900080839FBF81E090E0DF91CF911F910F910C
:1002A000FF90EF900895F62E0B8D10E00F5F1F4F1B
:1002B0000F731127E02E8C8D8E110CC00FB607FC2A
:1002C000FACFE889F989808185FFF5CFCE010E94B8
:1002D0000A01F1CFEB8DEC0FFD2FF11DE35AFF4F1B
:1002E000F0829FB7F8940B8FEA89FB898081806246
:1002F000CFCFCF93DF93EC01888D8823B9F0AA8903
:10030000BB89E889F9898C9185FD03C0808186FDD0
:100310000DC00FB607FCF7CF8C9185FFF2CF80811F
:1003200085FFEDCFCE010E940A01E9CFDF91CF9189
:100330000895833081F028F4813099F08230A9F05B
:1003400008958730A9F08830C9F08430B1F48091E5
:1003500080008F7D03C0809180008F778093800024
:10036000089584B58F7784BD089584B58F7DFBCFC4
:100370008091B0008F778093B00008958091B00095
:100380008F7DF9CF1F93CF93DF93282F30E0F901B2
:10039000E255FF4F8491F901E656FF4FD491F901E0
:1003A000EA57FF4FC491CC23A9F0162F81110E9468
:1003B0009901EC2FF0E0EE0FFF1FEE58FF4FA591D3
:1003C000B4918FB7F894EC91111108C0D095DE2349
:1003D000DC938FBFDF91CF911F910895DE2BF8CF73
:1003E000CF93DF9390E0FC01E656FF4F24918A57AC
:1003F0009F4FFC0184918823D1F090E0880F991FD2
:10040000FC01E859FF4FA591B491FC01EE58FF4F54
:10041000C591D491623071F49FB7F8943C91822FCA
:10042000809583238C93E8812E2B28839FBFDF91B7
:10043000CF9108958FB7F894EC912E2B2C938FBF0A
:10044000F6CFCF93DF93EC0161E08BE10E94F001E6
:10045000209731F460E08BE1DF91CF910C94C201E1
:10046000CF3FD10511F461E0F6CFE9ECF0E0E49183
:10047000E33029F140F4E130B1F0E230D9F0C03896
:10048000D1058CF7E7CFE73021F1E83051F1E430C6
:10049000B1F780918000806280938000D0938B00C0
:1004A000C0938A0004C084B5806884BDC7BDDF9155
:1004B000CF91089584B5806284BDC8BDF8CF809186
:1004C0008000806880938000D0938900C09388006A
:1004D000EECF8091B00080688093B000C093B300ED
:1004E000E6CF8091B00080628093B000C093B400EA
:1004F000DECF2FB7F8946091390170913A01809165
:100500003B0190913C012FBF08950F931F930E94D0
:100510007902609358017093590180935A01909326
:100520005B0180E591E00E94DC0097FF1DC00E9406
:100530007902009158011091590120915A0130918E
:100540005B01601B710B820B930B009154011091A6
:1005500055012091560130915701601771078207AC
:100560009307F8F28FEF9FEF1F910F9108951F925D
:100570000F920FB60F9211242F933F934F935F93D7
:100580006F937F938F939F93AF93BF93EF93FF935B
:1005900080E591E00E940A01FF91EF91BF91AF9138
:1005A0009F918F917F916F915F914F913F912F918B
:1005B0000F900FBE0F901F9018951F920F920FB6BD
:1005C0000F9211242F938F939F93EF93FF93E091BA
:1005D0006001F09161018081E0916601F091670115
:1005E00082FD1BC09081809169018F5F8F73209184
:1005F0006A01821741F0E0916901F0E0E05BFE4F93
:10060000958F80936901FF91EF919F918F912F9129
:100610000F900FBE0F901F9018958081F4CF1F92FE
:100620000F920FB60F9211242F933F938F939F93A6
:10063000AF93BF938091390190913A01A0913B0112
:10064000B0913C013091380123E0230F2D3758F54C
:100650000196A11DB11D209338018093390190931B
:100660003A01A0933B01B0933C01809134019091F9
:100670003501A0913601B09137010196A11DB11D40
:100680008093340190933501A0933601B0933701E4
:10069000BF91AF919F918F913F912F910F900FBE7E
:1006A0000F901F90189526E8230F0296A11DB11DEB
:1006B000D2CF789484B5826084BD84B5816084BDD6
:1006C00085B5826085BD85B5816085BD80916E00F0
:1006D000816080936E001092810080918100826021
:1006E000809381008091810081608093810080915E
:1006F00080008160809380008091B100846080934D
:10070000B1008091B00081608093B00080917A0048
:10071000846080937A0080917A00826080937A006E
:1007200080917A00816080937A0080917A0080685D
:1007300080937A001092C100E0916001F091610114
:1007400082E08083E0915C01F0915D011082E09194
:100750005E01F0915F018FEC808310926801E0915F
:100760006401F091650186E08083E0916201F0917F
:100770006301808180618083E0916201F091630177
:10078000808188608083E0916201F09163018081C3
:1007900080688083E0916201F091630180818F7DA8
:1007A000808361E080E20E94F00161E081E20E94CA
:1007B000F00161E089E10E94F00161E08AE10E94BC
:1007C000F00161E08DE00E94F00161E082E10E94B1
:1007D000F00161E083E10E94F00162E08EE00E949E
:1007E000F0019CEB892E90E0992E28EAE22E20E081
:1007F000F22E34E9C32E30E0D32E40E0A42E40E0A8
:10080000B42E0091490110914A010115110509F416
:100810004EC00E94790240903E0150903F0160908E
:100820004001709041016419750986099709623089
:10083000710581059105D8F10E94790260933E010E
:1008400070933F01809340019093410150903D018E
:1008500028E0529EE0011124CC5EDE4F688180E2E8
:100860000E94C2016A8181E20E94C2016C8189E119
:100870000E94C2016E818AE10E94C20181E0850D61
:10088000843009F4AAC080933D0186EE90E00E9476
:10089000210261E083E10E94C20160E082E10E94E6
:1008A000C2010150110910934A0100934901F4015A
:1008B0008491F701C491F601D491DD2309F490C02D
:1008C00081110E949901ED2FF0E0EE0FFF1FE45817
:1008D000FF4FA591B4918C91C82331E020E009F439
:1008E00030E0832F922F909301018093000120919B
:1008F000490130914A01232B09F058C0019709F4AE
:1009000055C000914701109148010115110509F4E6
:100910004DC00E9479024090430150904401609084
:10092000450170904601641975098609970962307E
:10093000710581059105D0F10E9479026093430110
:100940007093440180934501909346015090420179
:10095000F8E05F9EE0011124CC5EDE4F6E8180E204
:100960000E94C2016C8181E20E94C2016A8189E118
:100970000E94C20168818AE10E94C20181E0850D66
:10098000843089F18093420190E080E00E9421024E
:1009900060E083E10E94C20161E082E10E94C20145
:1009A00001501109109348010093470180E591E03F
:1009B0000E94EA00892B09F46EC00E9485021C0186
:1009C00097FD65C08D32910589F0C0970A9770F048
:1009D00080E591E00E94C800F0CF10923D0155CF14
:1009E00090E080E080CF10924201CECF412C512C7C
:1009F0003201C0E081E028163104E1F0EDE22E166C
:100A0000310409F442C0C101C0970A9798F4AAE0E2
:100A1000B0E0A30192010E94AA052101330C6608EF
:100A20007708460E571E681E791EF0E34F1A5108CC
:100A30006108710880E591E00E94C8000E9485026B
:100A40001C01C0970A97B0F221E02216310491F2FE
:100A5000CC2341F07094609450944094411C511CFC
:100A6000611C711C50924A01409249015092480108
:100A70004092470180E591E00E94EA00892B59F0FD
:100A800080E591E00E94C800F5CFC1E0D3CF412CB2
:100A9000512C3201E7CF0E94790200914C01109154
:100AA0004D0120914E0130914F01601B710B820B63
:100AB000930B643F71408105910598F00E94790283
:100AC00060934C0170934D0180934E0190934F01C0
:100AD00060914B01F1E06F2760934B018DE00E9424
:100AE000C201A114B10409F48CCE0E94F60088233F
:100AF00009F487CE0E94000084CEE0E5F1E0138285
:100B0000128288EE93E0A0E0B0E084839583A68310
:100B1000B78386E091E09183808385EC90E09587B0
:100B2000848784EC90E09787868780EC90E0918BB7
:100B3000808B81EC90E0938B828B82EC90E0958BA4
:100B4000848B86EC90E0978B868B118E128E138EA1
:100B5000148E08950E94B505A59F900DB49F900D29
:100B6000A49F800D911D11240895A29FB001B39FF1
:100B7000C001A39F700D811D1124911DB29F700DA6
:100B8000811D1124911D0895EE0FFF1F0590F49112
:100B9000E02D0994F894FFCF0100000000002C0123
:100BA0008C00B9007901EA00C800DC0001000000F7
:100BB0000000000000000100000000000000000034
:0C0BC00001000000000000000000010027
:107E0000112484B714BE81FFF0D085E080938100F7
:107E100082E08093C00088E18093C10086E0809377
:107E2000C20080E18093C4008EE0C9D0259A86E02C
:107E300020E33CEF91E0309385002093840096BBD3
:107E4000B09BFECF1D9AA8958150A9F7CC24DD24C4
:107E500088248394B5E0AB2EA1E19A2EF3E0BF2EE7
:107E6000A2D0813461F49FD0082FAFD0023811F036
:107E7000013811F484E001C083E08DD089C08234E0
:107E800011F484E103C0853419F485E0A6D080C0E4
:107E9000853579F488D0E82EFF2485D0082F10E0AE
:107EA000102F00270E291F29000F111F8ED06801E7
:107EB0006FC0863521F484E090D080E0DECF843638
:107EC00009F040C070D06FD0082F6DD080E0C81688
:107ED00080E7D80618F4F601B7BEE895C0E0D1E017
:107EE00062D089930C17E1F7F0E0CF16F0E7DF06D8
:107EF00018F0F601B7BEE89568D007B600FCFDCFD4
:107F0000A601A0E0B1E02C9130E011968C91119780
:107F100090E0982F8827822B932B1296FA010C0160
:107F200087BEE89511244E5F5F4FF1E0A038BF0790
:107F300051F7F601A7BEE89507B600FCFDCF97BE46
:107F4000E89526C08437B1F42ED02DD0F82E2BD052
:107F50003CD0F601EF2C8F010F5F1F4F84911BD097
:107F6000EA94F801C1F70894C11CD11CFA94CF0C13
:107F7000D11C0EC0853739F428D08EE10CD085E9AC
:107F80000AD08FE07ACF813511F488E018D01DD067
:107F900080E101D065CF982F8091C00085FFFCCF94
:107FA0009093C60008958091C00087FFFCCF809118
:107FB000C00084FD01C0A8958091C6000895E0E648
:107FC000F0E098E1908380830895EDDF803219F02E
:107FD00088E0F5DFFFCF84E1DECF1F93182FE3DFCA
:107FE0001150E9F7F2DF1F91089580E0E8DFEE27F6
:047FF000FF270994CA
:027FFE00040479
:00000001FF
